:1000000061C0000087C0000085C0000083C0000000
:1000100081C000007FC000007DC000007BC00000E8
:1000200079C0000077C0000075C0000073C00000F8
:1000300071C000000C940A0B6DC000006BC0000082
:100040000C94331767C000000C94121A0C94441AD5
:1000500061C000005FC000005DC000005BC0000028
:1000600059C0000057C00000000000080002010055
:100070000003040700000000000000000102040863
:100080001020408001020408102001020408102002
:10009000040404040404040402020202020203032E
:1000A00003030303000000002300260029000000D2
:1000B0000000250028002B0000000000240027007D
:1000C0002A00691A11241FBECFEFD8E0DEBFCDBFD2
:1000D00011E0A0E0B1E0EAEDF5E302C005900D9279
:1000E000AE3AB107D9F723E0AEEAB1E001C01D9204
:1000F000AA38B207E1F710E0C2E6D0E004C02197C9
:10010000FE010E94E51AC136D107C9F70E94A80B6B
:100110000C94EB1A75CFCF93DF93882349F0EB0152
:1001200081500E94B81799838883DF91CF910895F9
:10013000FB0111821082F9CF0F931F938B019C0159
:1001400083E036952795179507958A95D1F7095439
:100150001E4F462F477021E030E0F90102C0EE0F3C
:10016000FF1F4A95E2F7AF01F80120812423CB015C
:100170000196211102C090E080E01F910F91089537
:100180000F931F938B019C0183E03695279517955C
:1001900007958A95D1F7677081E090E001C0880FDC
:1001A0006A95EAF7F801E954FE4F2081452B31F4B6
:1001B0008095822380831F910F910895822BFACF1F
:1001C000CF92DF92EF92FF92CF93DF936B017C018E
:1001D00060E08EE0C816D104E104F10490F48EE0F2
:1001E0008C0D0E945718E6012196AE01C701B60199
:1001F000C7DFCE01DF91CF91FF90EF90DF90CF90DE
:1002000008958C2DEECF882341F08150682F70E047
:1002100090E080E050E040E0B3CF0895611102C06B
:100220000C9457186130E1F362E0FACF662319F0BD
:1002300061E00C94931860E0FCCF0E94C01821E0AC
:10024000019709F020E0822F0895CF92DF92EF927C
:10025000FF92CF93882351F16A017B01CFEFC80F42
:1002600020E030E0A901CB01B6010E94DC1487FF39
:1002700011C0C701B60190580E944D159B01AC01F9
:100280006C2F70E090E080E0CF91FF90EF90DF90D6
:10029000CF90B2C0C701B6010E9448158C2FCF91F4
:1002A000FF90EF90DF90CF900C94D317CF91FF90F9
:1002B000EF90DF90CF9008950F931F938B019C01D7
:1002C00083E036952795179507958A95D1F70255BE
:1002D0001E4F462F477021E030E0F90102C0EE0FBB
:1002E000FF1F4A95E2F7AF01F80120812423CB01DB
:1002F0000196211102C090E080E01F910F910895B6
:100300000F931F938B019C0183E0369527951795DA
:1003100007958A95D1F7677081E090E001C0880F5A
:100320006A95EAF7F801E255FE4F2081452B31F43A
:100330008095822380831F910F910895822BFACF9D
:100340002F923F924F925F926F927F928F929F92E5
:10035000AF92BF92CF92DF92EF92FF920F931F93D3
:10036000CF93DF93D62EC72E782E692E49015A01DE
:10037000280161E08D2D0E945718CD2DDC2D8E01B6
:100380000F5F1F4FA8016D2D7C2D872D962DB8DF97
:1003900020E030E0A901C201B7010E94CC16181676
:1003A00064F4C201B7010E944D152B01C501B401CF
:1003B0000E944D15A201CE0123D0C801DF91CF913B
:1003C0001F910F91FF90EF90DF90CF90BF90AF9073
:1003D0009F908F907F906F905F904F903F902F9065
:1003E0000895882341F08150682F70E090E080E00C
:1003F00050E040E085CF0895862FB9010C94D317C3
:100400009C01FC01E859FF4FE491E33061F140F4B5
:10041000E13011F1E23021F160E0822F0C94931869
:10042000E730C1F1E83009F441C0E430A9F7809128
:1004300080008C7F82608093800090918100907E0C
:100440009061692B609381005093870040938600F0
:100450008091800080621BC084B5806884BDDCCF41
:1004600084B58062FBCF809180008C7F8260809316
:10047000800090918100907E9061692B6093810053
:10048000509387004093860080918000806880931D
:100490008000C2CF8091B00080688093B0008091CE
:1004A000B100887F682B6093B100B6CF8091B00017
:1004B0008062F3CFFC0191E04091C6015091C701E9
:1004C0006091C8017091C901452B462B472B09F05B
:1004D00090E0918308954F925F926F927F928F92F6
:1004E0009F92AF92BF92CF92DF92EF92FF920F93C3
:1004F0001F93CF93DF9300D000D01F92CDB7DEB70C
:100500008091C6019091C701A091C801B091C90125
:100510000196A11DB11D85309105A105B10508F019
:100520003CC48093C6019093C701A093C801B093C7
:10053000C901C0900401D0900501E0900601F0903F
:100540000701A70196016091AE027091AF02809100
:10055000B0029091B1020E94DC14882341F0C09255
:10056000AE02D092AF02E092B002F092B1026FE020
:1005700070E080E090E0E0DD9093AD028093AC020B
:1005800023E030E030934A032093490343E050E0F6
:10059000BE016F5F7F4FBFDD69817A8190E080E0AF
:1005A0000E94791520913001309131014091320142
:1005B000509133010E94D0162091340130913501C1
:1005C00040913601509137010E94D01660934B0341
:1005D00070934C0380934D0390934E03C090080199
:1005E000D0900901E0900A01F0900B01A70196015B
:1005F0006091A2027091A3028091A4029091A50241
:100600000E94DC14882341F0C092A202D092A3027F
:10061000E092A402F092A50260E170E080E090E038
:100620008BDD9093A1028093A00223E030E0309311
:100630004A032093490343E050E0BE016F5F7F4FC0
:100640006ADD69817A8190E080E00E9479152091CD
:1006500038013091390140913A0150913B010E949B
:10066000D01620913C0130913D0140913E015091C6
:100670003F010E94D01660934F0370935003809304
:10068000510390935203C0900C01D0900D01E09063
:100690000E01F0900F01A7019601609196027091F2
:1006A000970280919802909199020E94DC1488230D
:1006B00041F0C0929602D0929702E0929802F09296
:1006C000990261E170E080E090E036DD9093950260
:1006D0008093940223E030E030934A03209349034F
:1006E00043E050E0BE016F5F7F4F15DD69817A8185
:1006F00090E080E00E947915209140013091410105
:1007000040914201509143010E94D0162091440132
:100710003091450140914601509147010E94D01609
:10072000609353037093540380935503909356033F
:10073000C0901401D0901501E0901601F0901701BF
:10074000A701960160917E0270917F0280918002E4
:10075000909181020E94DC14882341F0C0927E02B5
:10076000D0927F02E0928002F092810263E170E019
:1007700080E090E0E1DC90937D0280937C0223E0B6
:1007800030E030934A032093490343E050E0BE0138
:100790006F5F7F4FC0DC69817A8190E080E00E94CA
:1007A0007915209148013091490140914A015091B9
:1007B0004B010E94D01620914C0130914D01409187
:1007C0004E0150914F010E94D01611E020E030E020
:1007D000A9010E94DC14811101C010E010936B0389
:1007E000C0901001D0901101E0901201F09013011F
:1007F000A701960160918A0270918B0280918C0210
:1008000090918D020E94DC14882341F0C0928A02EC
:10081000D0928B02E0928C02F0928D0262E170E045
:1008200080E090E089DC909389028093880223E045
:1008300030E030934A032093490343E050E0BE0187
:100840006F5F7F4F68DC69817A8190E080E00E9471
:1008500079152091500130915101409152015091F0
:1008600053010E94D0166B017C01409054015090BE
:1008700055016090560170905701A30192010E94AA
:10088000DC1487FF93C28091200190912101A091F7
:100890002201B091230180935B0390935C03A093AA
:1008A0005D03B0935E0360915B0370915C03809184
:1008B0005D0390915E030E94B61560935B03709395
:1008C0005C0380935D0390935E030E945814882319
:1008D00009F4AFC210925B0310925C0310925D03A7
:1008E00010925E03C0905B03D0905C03E0905D03C8
:1008F000F0905E0320E030E0A901C701B6010E943C
:10090000DC1487FFB9C2C701B60190580E944D158B
:100910006195062E000C770B70936A036093690350
:10092000C0901801D0901901E0901A01F0901B01BD
:10093000A70196016091D2027091D3028091D402F6
:100940009091D5020E94DC14882341F0C092D2021B
:10095000D092D302E092D402F092D50283E06DDC13
:100960008C83C0901C01D0901D01E0901E01F0907E
:100970001F01A70196016091C6027091C702809184
:10098000C8029091C9020E94DC14882341F0C092F1
:10099000C602D092C702E092C802F092C90284E077
:1009A0004CDC8B83C0900001D0900101E0900201EB
:1009B000F0900301A70196016091BA027091BB0209
:1009C0008091BC029091BD020E94DC14882341F00A
:1009D000C092BA02D092BB02E092BC02F092BD0279
:1009E0006EE070E080E090E0A7DB9093B902809326
:1009F000B80223E030E030934A032093490343E0F8
:100A000050E0BE016F5F7F4F86DBC0907A01D090CF
:100A10007B01E0907C01F0907D0169817A8190E01A
:100A200080E00E9479152091580130915901409140
:100A30005A0150915B010E94D01620915C013091C7
:100A40005D0140915E0150915F010E94D0164B0103
:100A50005C012091760130917701409178015091AD
:100A60007901C701B6010E9478149B01AC01C50150
:100A7000B4010E94D016A70196010E9477146093DA
:100A80005F0370936003809361039093620383E339
:100A900093E09F938F9387E293E09F938F93CE0190
:100AA00005969F938F9387E593E09F938F938FE6AF
:100AB00093E09F938F938EE693E09F938F938DE6C1
:100AC00093E09F938F938CE693E09F938F9387E6B9
:100AD00093E09F938F9383E6882E83E0982E9FE583
:100AE000A92E93E0B92E9E012D5F3F4F6901CE01E3
:100AF00004967C0109E613E02BE633E043E553E07E
:100B00006FE473E08BE493E06BD620916401309145
:100B10006501409166015091670160916303709196
:100B2000640380916503909166030E94DC14682F32
:100B3000661F6627661F82E079DB60916D0388E09F
:100B400075DB60916E0389E071DB60916F038AE071
:100B50006DDB60916C0387E069DB6D818CE066DBA7
:100B60006BE070E080E090E0A7DB9093250380933A
:100B70002403209157033091580340915903509119
:100B80005A036091600170916101809162019091BE
:100B900063010E94D0160E94B61560935B037093A8
:100BA0005C0380935D0390935E030E9458140FB61C
:100BB000F894DEBF0FBECDBF882309F462C1109246
:100BC0005B0310925C0310925D0310925E03C09071
:100BD0005B03D0905C03E0905D03F0905E0320E047
:100BE00030E0A901C701B6010E94DC1487FF6CC187
:100BF000C701B60190580E944D15619570E090E0D4
:100C000080E00E947B15AB01BC0180912403909190
:100C100025031BDB66E070E080E090E04DDB7C01AB
:100C200090931D0380931C0360916D01062E000CB0
:100C3000770B880B990B0E947B154B015C0160912F
:100C400067037091680390E080E00E9479159B0132
:100C5000AC01C501B4010E94D0164B015C0120E03B
:100C600030E04FE753E40E94DC1418160CF431C155
:100C700080925B0390925C03A0925D03B0925E034E
:100C800020E030E0A90160915B0370915C038091EA
:100C90005D0390915E030E94CC1687FF08C01092FE
:100CA0005B0310925C0310925D0310925E0340910F
:100CB0005B0350915C0360915D0370915E03C7011B
:100CC000C4DA65E070E080E090E0F6DA9093150316
:100CD00080931403609163037091640380916503B2
:100CE000909166039F77209168013091690140914E
:100CF0006A0150916B010E94D0160E94B615609354
:100D00005F037093600380936103909362030E947A
:100D10003E14882309F4EAC010925F031092600326
:100D20001092610310926203C0905F03D090600341
:100D3000E0906103F090620320E030E0A901C70178
:100D4000B6010E94DC1487FFF4C0C701B6019058B9
:100D50000E944D15619570E090E080E00E947B1547
:100D6000AB01BC0180911403909115036EDA0F90D2
:100D70000F900F900F900F90DF91CF911F910F91D7
:100D8000FF90EF90DF90CF90BF90AF909F908F90AB
:100D90007F906F905F904F9008951092C6011092CF
:100DA000C7011092C8011092C901C3CB80902C01D9
:100DB00090902D01A0902E01B0902F01A5019401DB
:100DC000C701B6010E94DC1487FF09C040925B0393
:100DD00050925C0360925D0370925E0364CD40901C
:100DE00028015090290160902A0170902B01A301E5
:100DF0009201C701B6010E94DC1487FF09C08092EE
:100E00005B0390925C03A0925D03B0925E034BCDB6
:100E10008090240190902501A0902601B090270198
:100E2000A5019401C701B6010E94DC1487FFE7CF3A
:100E3000CDCF60915B0370915C0380915D039091D5
:100E40005E030E94EC13811145CD60915B037091AC
:100E50005C0380915D0390915E0320E030E040E808
:100E600053E40E94D01560935B0370935C038093FE
:100E70005D0390935E0336CDC701B6010E944D1508
:100E800048CD60915B0370915C0380915D0390910C
:100E90005E030E94EC13811192CE60915B0370910E
:100EA0005C0380915D0390915E0320E030E040E8B8
:100EB00053E40E94D01560935B0370935C038093AE
:100EC0005D0390935E0383CEC701B6010E944D156A
:100ED00095CE80E090E0AFE7B3E480935B0390931E
:100EE0005C03A0935D03B0935E03CACE60915F0381
:100EF0007091600380916103909162030E941514C8
:100F000081110ACF60915F0370916003809161034A
:100F10009091620320E030E040E853E40E94D01555
:100F200060935F0370936003809361039093620307
:100F3000FBCEC701B6010E944D150DCF61E0809137
:100F40002603811160E0609326038DE06FC98F92C4
:100F50009F92AF92BF92DF92EF92FF920F931F93F7
:100F6000CF93DF9384E090E00E94B51367E473E0D1
:100F700080EC91E00E94B113C6E7D2E000E011E0FE
:100F800080916C018093260383E393E019D418AA1F
:100F9000F80184819581A681B78188AF99AFAAAF06
:100FA000BBAF812C912C5401839489AA9AAAABAA35
:100FB000BCAA6FE070E080E090E002D99FAB8EABFE
:100FC000DD24D394DDAA1CA2F80180859185A28539
:100FD000B3858CA79DA7AEA7BFA78DA29EA2AFA2E7
:100FE000B8A660E170E080E090E0EAD89BA78AA70D
:100FF000D9A6188EF80184859585A685B78588A31E
:1010000099A3AAA3BBA3898E9A8EAB8EBC8E61E1F5
:1010100070E080E090E0D4D89F8F8E8FDD8E1882B4
:10102000F80184899589A689B78988879987AA87CD
:10103000BB8789829A82AB82BC8263E170E080E0E8
:1010400090E0BED89F838E83DD821C86F801808964
:101050009189A289B3898C8B9D8BAE8BBF8B8D863A
:101060009E86AF86B88A62E170E080E090E0A8D802
:101070009B8B8A8BD98A1092CA02F801808D918D40
:10108000A28DB38D8093D2029093D302A093D40209
:10109000B093D5028092CB029092CC02A092CD0266
:1010A000B092CE0260E083E0B9D8D092CF02109225
:1010B000BE02F801848D958DA68DB78D8093C602F2
:1010C0009093C702A093C802B093C9028092BF0256
:1010D0009092C002A092C102B092C20260E084E08D
:1010E0009DD8D092C3021CAEF80180819181A2816B
:1010F000B3818093BA029093BB02A093BC02B093D9
:10110000BD028092B3029092B402A092B502B09256
:10111000B6026EE070E080E090E052D89093B902A1
:101120008093B802D092B702109206038092070310
:1011300090920803A0920903B0920A0361E082E052
:101140006DD8D0920B031092FE028092FF02909213
:101150000003A0920103B092020361E088E05ED830
:10116000D09203031092F6028092F7029092F80256
:10117000A092F902B092FA0261E089E04FD8D092D1
:10118000FB021092EE028092EF029092F002A09287
:10119000F102B092F20261E08AE040D8D092F3020C
:1011A0001092DE028092DF029092E002A092E102B1
:1011B000B092E20261E087E031D8D092E30210926F
:1011C000D6028092D7029092D802A092D902B09211
:1011D000DA0261E08CE022D8D092DB0210921E038A
:1011E00080921F0390922003A0922103B0922203C9
:1011F000E12CF12C8701A80197016BE070E080E001
:1012000090E09ED89093250380932403D0922303EB
:10121000109216038092170390921803A09219035C
:10122000B0921A03A801970166E070E080E090E0B8
:1012300087D890931D0380931C03D0921B031092B8
:101240000E0380920F0390921003A0921103B092AC
:101250001203A801970165E070E080E090E070D88B
:101260009093150380931403D09213031092E60217
:101270008092E7029092E802A092E902B092EA021C
:1012800061E08DE00E940E01D092EB02DF91CF91E0
:101290001F910F91FF90EF90DF90BF90AF909F90C4
:1012A0008F9008958091A60281111FC081E08093E4
:1012B000A6028091A7029091A802A091A902B091E4
:1012C000AA020197A105B10581F48091AB028823A0
:1012D00061F06FE070E080E090E00E949C009093ED
:1012E000AD028093AC020E94030180919A028111A9
:1012F0001FC081E080939A0280919B0290919C0292
:10130000A0919D02B0919E020197A105B10581F4C3
:1013100080919F02882361F060E170E080E090E0BE
:101320000E949C009093A1028093A0020E9403015E
:1013300080918E0281111FC081E080938E02809186
:101340008F0290919002A0919102B0919202019728
:10135000A105B10581F480919302882361F061E1D8
:1013600070E080E090E00E949C0090939502809352
:1013700094020E9403018091760281111FC081E0D6
:10138000809376028091770290917802A091790201
:10139000B0917A020197A105B10581F480917B0299
:1013A000882361F063E170E080E090E00E949C009F
:1013B00090937D0280937C020E94030180918202BF
:1013C00081111FC081E080938202809183029091FD
:1013D0008402A0918502B09186020197A105B10512
:1013E00081F480918702882361F062E170E080E0FF
:1013F00090E00E949C0090938902809388020E9452
:1014000003018091CA02811103C081E08093CA0266
:101410008091BE02811103C081E08093BE02809161
:10142000B20281111FC081E08093B2028091B302A9
:101430009091B402A091B502B091B6020197A105B6
:10144000B10581F48091B702882361F06EE070E00D
:1014500080E090E00E949C009093B9028093B802D3
:101460000E94030180910603811103C081E08093F3
:1014700006038091FE02811103C081E08093FE0289
:101480008091F602811103C081E08093F602809181
:10149000EE02811103C081E08093EE028091DE02B2
:1014A000811103C081E08093DE028091D602811118
:1014B00003C081E08093D60280911E0381112EC06B
:1014C00081E080931E0380911F0390912003A091DF
:1014D0002103B09122030197A105B105F9F4809190
:1014E00023038823D9F06BE070E080E090E00E9455
:1014F0005C01909325038093240340E050E0BA01FF
:101500000E9425016BE070E080E090E00E945C01A9
:1015100090932503809324030E94F1018091160388
:1015200081112EC081E08093160380911703909162
:101530001803A0911903B0911A030197A105B105F1
:10154000F9F480911B038823D9F066E070E080E015
:1015500090E00E945C0190931D0380931C0340E087
:1015600050E0BA010E94250166E070E080E090E062
:101570000E945C0190931D0380931C030E94F10163
:1015800080910E0381112EC081E080930E03809123
:101590000F0390911003A0911103B09112030197D2
:1015A000A105B105F9F4809113038823D9F065E012
:1015B00070E080E090E00E945C01909315038093BE
:1015C000140340E050E0BA010E94250165E070E09C
:1015D00080E090E00E945C019093150380931403D7
:1015E0000E94F1018091E602811103C081E08093A5
:1015F000E602089526E030E040E855E260E070E061
:1016000090E080E000C0892B21F489ED91E00C94FA
:10161000B21908951F920F920FB60F9211242F93B3
:101620003F934F935F936F937F938F939F93AF936A
:10163000BF93EF93FF9386E997EE90938500809395
:10164000840032D0FF91EF91BF91AF919F918F9124
:101650007F916F915F914F913F912F910F900FBEAE
:101660000F901F90189586E997EE909385008093D0
:101670008400AFE6B0E08C918E7F8C93E0E8F0E0E0
:1016800080818C7F8083E1E8F0E08081877E8083A9
:1016900080818460808380818C7F80838C91816055
:1016A0008C93089581E00895CF93DF9300D0CDB758
:1016B000DEB78091CC0191E0980F9093CC01882304
:1016C00069F021E030E03093CF012093CE01809388
:1016D000CC010F900F90DF91CF910895CE0101962C
:1016E0000E945A0278940E946B02F8948091CC0177
:1016F00081508093CC018A81882389F08091CB012D
:1017000091E0980F9093CB01882349F021E030E0DD
:101710003093CF012093CE018093CB01DACF80911B
:10172000CB018823B1F28091CD018111D2CF81E02C
:101730008093CD01789402DCF8948091CB018150A4
:101740008093CB018091CD0181508093CD01C1CF99
:10175000CF93DF9310927103109270030E947D1754
:1017600049DFC0919901D0919A0119821882EFDB6B
:10177000F89479DF81E028813981232B09F080E01A
:10178000809370037894789480917003811107C0DE
:1017900089DDF89490E080E0DF91CF91089581E0B9
:1017A00028813981232B09F480E080937103909183
:1017B000710381E0911180E08093700373DFE4CFC7
:1017C0004091820150918301609184017091850163
:1017D000FC01408351836283738322E02487089550
:1017E0002F923F924F925F926F927F928F929F9231
:1017F000AF92BF92CF92DF92EF92FF920F931F931F
:10180000CF93DF93CDB7DEB7E0970FB6F894DEBF86
:101810000FBECDBF9A8B898B788F6F8B5A8F498F74
:101820003C872B871CA70BA7DEA6CDA6BE8EAD8E50
:101830009AA689A627962EAD3FAD27973C832B838A
:1018400029964EAD5FAD299758A34F8F2B960EADBD
:101850001FAD2B972D968EAD9FAD2D97988B8F87B3
:101860002F96AEADBFAD2F97BC8FAB8F6196EEAD0F
:10187000FFAD6197F887EF8363962EAD3FAD639719
:1018800038AB2FA765964EAD5FAD65975A834983F8
:1018900067962EAC3FAC6797D7018C91EF8DF8A17E
:1018A0008083D1011F968C911F978111C8C081E060
:1018B0001F968C931F9782E01D968C93F8011082DF
:1018C000AF85B8891C9280E090E0A0E8BFEBF10101
:1018D00084839583A683B783FF24F394412C512CF2
:1018E00090E8692E9FE3792EEF89F88D80809180B2
:1018F000A280B380A5019401A989BA896D917D91D7
:101900008D919C91F4D79F772AE037ED43E25CE319
:101910000E94DC1487FF87C2E98DFA8D2081318116
:1019200042815381C501B401E2D79F7701E010E005
:101930002AE037ED43E25CE30E94DC1487FD02C03D
:1019400010E000E0012B09F46EC2F1018085918561
:10195000A285B3850196A11DB11D80879187A287BD
:10196000B387EF8DF8A18081882319F081E0F11011
:1019700001C080E0AB8DBC8D8C93EF8DF8A1808190
:10198000811159C2A0909401B090950100919601E7
:1019900010919701C0907601D0907701E090780186
:1019A000F09079019501A801C701B6010E94DC14ED
:1019B00087FD16C0C0907A01D0907B01E0907C0139
:1019C000F0907D01F7FAF094F7F8F0949501A801F2
:1019D000C701B6010E94CC16181614F065017801F3
:1019E000EDA5FEA58081AFA5B8A98C9300918E01CD
:1019F00010918F01882321F0EBA5FCA500811181B6
:101A0000D10153968C915397811121C281E0539655
:101A10008C93539785E050968C93EB81FC811182D7
:101A20001082A981BA8118961D921D921D921C9256
:101A30001B97FD0114821582168217826CC21D96B7
:101A40008C91813009F0E3C0A989BA892D913D912B
:101A50004D915C912B8B3C8B4D8B5E8BEF89F88D80
:101A6000C080D180E280F380A70196016B897C89D8
:101A70008D899E893CD74B015C01E894B7F8A98D0C
:101A8000BA8D4D905D906D907C90A3019201C7013D
:101A9000B6012DD76B017C01E894F7F82AE037ED09
:101AA00043E25CE3C501B40187D787FF09C02AE0A0
:101AB00037ED43E25CE3C701B6017ED787FD05C081
:101AC000F1011086118612861386F10180859185B9
:101AD000A285B385893C9105A105B10548F016861C
:101AE00082E08587D8011C92EF85F8891082EBCEC1
:101AF0002AE037ED43E25CE3C501B4010E94CC1655
:101B000087FD2AC02AE037ED43E25CE3C701B60156
:101B10000E94CC1687FD20C0A30192016B897C89AD
:101B20008D899E89E4D69F772AE037ED43E25CE316
:101B30000E94CC1687FD10C0FF24F39420E030E013
:101B400040E850E4D10114966D917D918D919C9166
:101B5000179732D7811101C0F12CFF20A9F080E046
:101B600090E0A0E8B0E4F10184839583A683B78375
:101B7000108611861286138681E08687F80110820E
:101B8000AF85B8898C93D1C0F1018685823081F010
:101B90008330D1F08130A9F5D8011C92EF85F88906
:101BA000808383E3482E542C642C8FE3782E9CCEC4
:101BB00081E0D8018C93E98DFA8D208131814281B9
:101BC0005381AF89B88D0BC081E0D8018C93E98D2A
:101BD000FA8D2081318142815381A989BA896D9121
:101BE0007D918D919C9184D620E030E040E05FE3D0
:101BF0000E94D016EF81F88560837183828393837E
:101C0000D0CF81E0D8018C93E989FA89D6CFD80169
:101C10001C92EF85F8891082A989BA892D913D918E
:101C20004D915C912B8B3C8B4D8B5E8BAF89B88D2E
:101C30002D913D914D915C9129A33AA34BA35CA3B7
:101C40006B897C898D899E8952D69B01AC015F7717
:101C50002DA33EA34FA358A7A98DBA8D4D905D909B
:101C60006D907C90A30192016B897C898D899E89FE
:101C70003ED66B017C01E894F7F8A301920169A1BB
:101C80007AA18BA19CA133D64B015C01E894B7F8F3
:101C90002AE037ED43E25CE36DA17EA18FA198A518
:101CA0000E94CC1687FD5CC02AE037ED43E25CE37E
:101CB000C501B4010E94CC162AE037ED43E25CE393
:101CC00087FD35C0C701B6010E94CC1687FD35C51A
:101CD00080E090E0A0E8B0E4F10184839583A683DE
:101CE000B7831086118612861386FF24F394F58637
:101CF00084809580A680B78020E030E040E85FE3F4
:101D0000C501B40159D6882309F487C020E030E02A
:101D100040E450E4C501B4014FD681115EC084E0B7
:101D2000D1011E968C93F801F082F12C3ACFC701B5
:101D3000B6010E94CC1687FD13C02AE037ED43E2BE
:101D40005CE3C501B40138D687FF14C080E090E0A1
:101D5000A0E8BFE3C1CF80E090E0A0E0B0E4BCCF5A
:101D60002AE037ED43E25CE3C701B6010E94CC16DE
:101D700087FD1AC02AE037ED43E25CE3C501B401F8
:101D80000E94CC1687FD10C02AE037ED43E25CE3E9
:101D90006DA17EA18FA198A50FD687FF05C080E019
:101DA00090E0A0E4B0E498CF29A13AA14BA15CA1B6
:101DB0006B897C898D899E899BD5A301920198D5D9
:101DC00020E030E040E450E4FBD5AF81B8856D936E
:101DD0007D938D939C9313977FCD20E030E040E876
:101DE00050E4C501B401E8D5811109C0D1011E96A6
:101DF000FC92F8011082AF85B889FC9296CF20E062
:101E000030E040E050E4C501B401D6D5811105C0F1
:101E100083E0F1018687D801F0CF82E0F101868767
:101E200081E0D801AFCED10118961D921D921D926E
:101E30001C921B9796CDAD8DBE8DAC901196BC902B
:101E4000119712960C91129713961C91A3CD509650
:101E50008C915097833009F4D1C2D0F4813081F154
:101E6000823009F4D7C181E090E0EB81FC8191835D
:101E700080830130110509F045C0AB85BC858C918C
:101E8000882309F494C380E090E0A0EAB0EC1CC37E
:101E9000843009F43AC3853031F7EB81FC8111823B
:101EA0001082012B09F4F7C181E090E0AB85BC857D
:101EB0002C91211102C090E080E0892B19F5EBC133
:101EC000EB81FC81A080B1800330110544F4F3E084
:101ED000AF16B10449F00130110509F492C021E0B8
:101EE000A216B10409F08DC0D10152968C9152977F
:101EF000823031F4E981FA811086118612861386C8
:101F000052961C9284E0F101808B82E090E0AB81DC
:101F1000BC818D939C93A981BA8118968D909D90D8
:101F2000AD90BC901B9720E030E0A901C501B40141
:101F300043D5181684F0F1018485813061F48091D5
:101F4000820190918301A0918401B09185018083E9
:101F50009183A283B383A7019601A981BA811496C4
:101F60006D917D918D919C911797C1D46F837887E6
:101F700089879A87D1012D913D914D915C912B8755
:101F80003C874D875E87EF85F88980818111A7C3E3
:101F9000C0907201D0907301E0907401F0907501CF
:101FA00020E030E0A901C501B40106D581110FC3BD
:101FB000A981BA811C9111960C9111971296BC912E
:101FC000BB83E981FA81F381F983A7019601612F2F
:101FD000702F8B2F9F2FE0D618160CF42CC3F7FA16
:101FE000F094F7F8F094A7019601612F702F8B8180
:101FF0009981E2D487FD1FC3C12ED02EEB80F980DA
:102000001AC3EB85FC858080D10152969C90B4E088
:10201000AB16B10409F08CC32BEA3AEA4AEA5EE354
:10202000EF81F8856081718182819381B5D6181620
:102030000CF062C0811060C0AB8DBC8D8C91882388
:1020400009F45AC0B2E09B1226C0E981FA811086D9
:10205000118612861386D10152961C9282E0D1011C
:1020600050968C9384E090E0EB81FC819183808397
:10207000AF81B8858D909D90AD90BC902BEA3AEAE7
:102080004AEA5EE3C501B40187D618163CF481E044
:10209000F101818B40CFF101128AE0CF20E030E0E6
:1020A00040E05FE3C701B6019F7786D418167CF342
:1020B0002BEA3AEA4AEA5EE3C501B4017DD4181678
:1020C00034F3AB85BC858C918111E1CF82E0F101C5
:1020D000818BA981BA8114961D921D921D921C922A
:1020E000179780E090E0A0E8BFE3E981FA8180875C
:1020F0009187A287B3870FCF04301105E4F0AB8D31
:10210000BC8D8C91811104C0B4E0AB16B10499F080
:10211000E3E0AE16B10449F520E030E0A901AF815B
:10212000B8856D917D918D919C9136D618160CF0E5
:1021300043C0811012C3B2E09B1214C0E981FA813E
:102140001086118612861386D10152961C9283E066
:10215000D10150968C9383E090E0EB81FC819183D8
:102160008083D9CEF101128AF2CFAA94AB2821F54F
:1021700020E030E0A901AF81B8856D917D918D910E
:102180009C910AD61816C4F48110E7C2B2E09B12E3
:1021900010C0E981FA811086118612861386D1015A
:1021A00052961C9286E0D10150968C9381E090E08B
:1021B000D4CFF101128AF6CFF1E09F1217C081103F
:1021C000AACE20E030E040E05FE3C701B6019F7790
:1021D000F3D318160CF49FCEAF8DB8A18C91882341
:1021E00009F499CE82E0F101828B7BCF882009F43B
:1021F00092CEA981BA8118961D921D921D921C92B1
:102200001B9781E0F101828B1D921D921D921C9201
:10221000139781CE84E090E0EB81FC8191838083F1
:1022200051968C910430110529F4EB8DFC8D908131
:10223000911116C0823089F4A981BA8118961D9235
:102240001D921D921C921B97FD0110821182128219
:102250001382D10151961C927ACFF101118A77CF66
:10226000AB85BC859C919923E9F040E050E060EAA1
:1022700070E4E981FA8144835583668377838230F1
:1022800069F41086118612861386F101118A81E0A5
:10229000F101808B828BA981BA81B6CFD101519691
:1022A0001C92F5CFEF81F88580809180A280B38069
:1022B000813031F1823009F45CC02BEA3AEA4AEA13
:1022C0005EE3C501B40168D518160CF4E0CE20E039
:1022D00030E040E05FE3C701B6016ED318160CF49E
:1022E00061C082E0D10151968C93E981FA81148218
:1022F00015821682178280E090E0A0E8BFE3F7CE57
:102300002BEA3AEA4AEA5EE3C501B40155D318164E
:102310002CF083E0D10151968C93FDCD20E030E08C
:1023200040E450E4609172017091730180917401F6
:102330009091750135D520E030E040E05FE330D585
:102340006B837C838D839E832BEA3AEA4AEA5EE3C1
:10235000C501B401CCD29B01AC016B817C818D8124
:102360009E811ED5E981FA81608371838283938384
:10237000D2CD2BEA3AEA4AEA5EE3C501B4010CD5B4
:1023800018160CF0C8CDA981BA8118961D921D921D
:102390001D921C921B97FD011082118212821382E2
:1023A00081E0B8CF8091720190917301A091740186
:1023B000B09175019C01AD0150582B833C834D8336
:1023C0005E8320E030E040E450E4C501B401E8D48D
:1023D0009B01AC0160E070E080E89FE388D29B0144
:1023E000AC016B817C818D819E81DAD4A981BA8117
:1023F0006D937D938D939C9313978DCD83E090E0A7
:10240000EB81FC8191838083033011050CF47ACD3C
:102410000430110509F04FC02BEA3AEA4AEA5EE3BC
:10242000AF81B8856D917D918D919C91B5D4181631
:1024300054F020E030E040E05FE3C701B6019F7751
:10244000BBD21816C4F1EB8DFC8D8081882399F1E5
:1024500082E0D10150968C9384E090E0EB81FC8186
:1024600091838083AF81B8858D909D90AD90BC9015
:102470002BEA3AEA4AEA5EE3C501B4018DD41816A4
:102480000CF405CE20E030E040E05FE3C701B60188
:102490009F7792D218160CF4FACD2BEA3AEA4AEA60
:1024A0005EE3C501B40188D218160CF4F0CDEB85BB
:1024B000FC85808109CEAB85BC858C918823B1F0E9
:1024C00080E090E0A0EAB0E4E981FA81848395831A
:1024D000A683B78381E0D10150968C935097529692
:1024E0008C93108211821282138215CD2091720179
:1024F000309173014091740150917501AF81B8859D
:102500006D917D918D919C912CCF82E090E0AB817B
:10251000BC818D939C9303301105ACF020E030E03A
:1025200040EA50ECC701B60137D4181664F481E0D4
:1025300090E0EB85FC852081211102C090E080E0D5
:10254000892B09F004CE01301105A9F420E030E018
:1025500040EA50E4C701B6012FD287FF0CC081E0EA
:1025600090E0AB85BC852C91211102C090E080E009
:10257000892B09F017CE012B09F08DCE20E030E039
:1025800040EA50E4C701B6019F7716D287FF83CE99
:1025900081E090E0EB85FC852081211102C090E074
:1025A00080E0892B09F477CE85E0D10134CA6091AF
:1025B0006E0170916F01809170019091710190583E
:1025C000AF81B8852D913D914D915C91CACE2091FE
:1025D00086013091870140918801509189016F8176
:1025E000788589859A85DCD32B853C854D855E85EC
:1025F0007FD1162F072F89839B83A7019601CCD308
:102600001816CCF0C0906E01D0906F01E090700170
:10261000F0907101F7FAF094F7F8F094212F302F31
:1026200049815B81C701B601B7D3181624F0C12ECA
:10263000D02EE980FB80A7019601C301B201B0D37F
:10264000A9A5BAA56D937D938D939C931397209123
:102650007E0130917F0140918001509181016F8115
:10266000788589859A859CD3A501940199D3209179
:102670008A0130918B0140918C0150918D0190D352
:102680002B853C854D855E8533D1D1016D937D933E
:102690008D939C93139720E030E0A901C501B4010C
:1026A0007BD318165CF581E0F1018487E0960FB6C4
:1026B000F894DEBF0FBECDBFDF91CF911F910F9178
:1026C000FF90EF90DF90CF90BF90AF909F908F9052
:1026D0007F906F905F904F903F902F9008958091E2
:1026E000900190919101A0919201B0919301E9A57F
:1026F000FAA580839183A283B383A9CF20E030E041
:10270000A901C501B40158D187FF05C08FEFD101E0
:102710001C968C93CBCF20E030E0A901C501B40119
:102720004BD1811103C0F1011486C0CF82E0EFCFFD
:10273000043011050CF4ECCCE2CC2AE037ED43E296
:102740005CE3C701B60138D187FD05CB2AE037ED40
:1027500043E25CE3C701B60113CBB1E09B1249CD64
:10276000DACBFB01918380830895B7D060937E0319
:1027700070937F038093800390938103B3D0609321
:10278000720370937303809374039093750391D0D5
:1027900060937A0370937B0380937C0390937D0313
:1027A0008DD0609376037093770380937803909332
:1027B000790389D0609382037093830380938403A9
:1027C0009093850385D060938603709387038093ED
:1027D0008803909389030895CF92DF92EF92FF923E
:1027E000CF936B017C01AC019B0160917A037091E6
:1027F0007B0380917C0390917D03DED0C1E0882330
:1028000069F0A70196016091820370918303809122
:10281000840390918503D0D08111C0E08C2FCF919B
:10282000FF90EF90DF90CF900895CF92DF92EF92DC
:10283000FF92CF936B017C01AC019B016091760309
:10284000709177038091780390917903B5D0C1E0BE
:10285000882369F0A7019601609186037091870330
:102860008091880390918903A7D08111C0E08C2FBB
:10287000CF91FF90EF90DF90CF9008950F931F932B
:102880008B019C010027112720783F770115110546
:1028900020483F4749F4AB01BC016F77772781E0BF
:1028A000452B462B472B09F480E01F910F9108958B
:1028B000E5CF60E070E080E89FE7089560E070E0B9
:1028C00080E89FE7089560E070E080E89FEF08955A
:1028D00060E070E080E89FEF089560E070E080ECD9
:1028E0009FEF089560E070E080EC9FEF08955058EE
:1028F000BB27AA270ED0FFC1F0D130F0F5D120F0D0
:1029000031F49F3F11F41EF4E5C10EF4E095E7FBAE
:10291000B2C1E92F01D280F3BA17620773078407A7
:10292000950718F071F49EF530C20EF4E0950B2E69
:10293000BA2FA02D0B01B90190010C01CA01A00111
:102940001124FF27591B99F0593F50F4503E68F16C
:102950001A16F040A22F232F342F4427585FF3CFAD
:10296000469537952795A795F0405395C9F77EF47E
:102970001F16BA0B620B730B840BBAF09150A1F0C7
:10298000FF0FBB1F661F771F881FC2F70EC0BA0F4D
:10299000621F731F841F48F4879577956795B795D5
:1029A000F7959E3F08F0B3CF9395880F08F09927CD
:1029B000EE0F9795879508953AD108F481E0089530
:1029C0000CD099C191D140F088D130F021F45F3F13
:1029D00019F051C15111DAC17DC19ED198F39923EB
:1029E000C9F35523B1F3951B550BBB27AA276217D3
:1029F0007307840738F09F5F5F4F220F331F441F18
:102A0000AA1FA9F333D00E2E3AF0E0E830D091504F
:102A10005040E695001CCAF729D0FE2F27D0660F3C
:102A2000771F881FBB1F261737074807AB07B0E87B
:102A300009F0BB0B802DBF01FF2793585F4F2AF091
:102A40009E3F510568F017C1A1C15F3FECF3983E6E
:102A5000DCF3869577956795B795F7959F5FC9F7EE
:102A6000880F911D9695879597F90895E1E0660F77
:102A7000771F881FBB1F621773078407BA0720F0F0
:102A8000621B730B840BBA0BEE1F88F7E095089559
:102A900004D06894B1117AC1089546D188F09F5747
:102AA00090F0B92F9927B751A0F0D1F0660F771F9A
:102AB000881F991F1AF0BA95C9F712C0B13081F07A
:102AC00064D1B1E0089561C1672F782F8827B85F7E
:102AD00039F0B93FCCF3869577956795B395D9F7DB
:102AE0003EF490958095709561957F4F8F4F9F4FE5
:102AF0000895E89409C097FB3EF4909580957095F1
:102B000061957F4F8F4F9F4F9923A9F0F92F96E939
:102B1000BB279395F695879577956795B795F111AE
:102B2000F8CFFAF4BB0F11F460FF1BC06F5F7F4F4B
:102B30008F4F9F4F16C0882311F096E911C077235D
:102B400021F09EE8872F762F05C0662371F096E866
:102B5000862F70E060E02AF09A95660F771F881F35
:102B6000DAF7880F9695879597F90895F7D080F052
:102B70009F3740F491110EF009C160E070E080E8E9
:102B80009FEB089526F41B16611D711D811D79C0F0
:102B900093C0A3D018F011F0A7D038F49BC0F6C0B2
:102BA000E92FBAD0B0F35523C9F3E7FB62177307D7
:102BB00084079507A8F199F3E92FFF2788232AF0C6
:102BC0003197660F771F881FDAF7952F5527442313
:102BD00032F091505040220F331F441FD2F7BB27D1
:102BE000E91BF50B621B730B840BB109C1F222F4D4
:102BF000620F731F841FB11D31972AF0660F771F74
:102C0000881FBB1FEFCF915050405AF041F08823EE
:102C100032F0660F771F881F91505040C1F793958F
:102C20004BC08695779567959F5FD9F7F8CF990F39
:102C30000008550FAA0BE0E8FEEF16161706E80786
:102C4000F907C0F012161306E407F50798F0621BA7
:102C5000730B840B950B39F40A2661F0232B242B7C
:102C6000252B21F408950A2609F4A140A6958FEF9B
:102C7000811D811D089597F99F6780E870E060E0ED
:102C80000895882371F4772321F09850872B762FAD
:102C900007C0662311F499270DC09051862B70E070
:102CA00060E02AF09A95660F771F881FDAF7880F81
:102CB0009695879597F908959F3F31F0915020F4AC
:102CC000879577956795B795880F911D9695879508
:102CD00097F908959FEF80EC089500240A94161642
:102CE000170618060906089500240A9412161306FA
:102CF000140605060895092E0394000C11F4882388
:102D000052F0BB0F40F4BF2B11F460FF04C06F5FA3
:102D10007F4F8F4F9F4F089557FD9058440F551F79
:102D200059F05F3F71F04795880F97FB991F61F04D
:102D30009F3F79F087950895121613061406551FC4
:102D4000F2CF4695F1DF08C0161617061806991F30
:102D5000F1CF86957105610508940895E5DFA0F02F
:102D6000BEE7B91788F4BB279F3860F41616B11D6B
:102D7000672F782F8827985FF7CF86957795679587
:102D8000B11D93959639C8F30895E894BB2766273B
:102D90007727CB0197F908954ADF08F48FEF08955C
:102DA0000BD0A9CF9ADF28F09FDF18F0952309F008
:102DB00062CF90CF1124EACFAFDFA0F3959FD1F37C
:102DC000950F50E0551F629FF001729FBB27F00DD9
:102DD000B11D639FAA27F00DB11DAA1F649F66272E
:102DE000B00DA11D661F829F2227B00DA11D621F7D
:102DF000739FB00DA11D621F839FA00D611D221F37
:102E0000749F3327A00D611D231F849F600D211D1A
:102E1000822F762F6A2F11249F5750408AF0E1F0BD
:102E200088234AF0EE0FFF1FBB1F661F771F881F06
:102E300091505040A9F79E3F510570F01CCFA6CF8E
:102E40005F3FECF3983EDCF3869577956795B795F1
:102E5000F795E7959F5FC1F7FE2B880F911D96951B
:102E6000879597F908951F920F920FB60F9211242C
:102E70002F933F938F939F93AF93BF938091D101F3
:102E80009091D201A091D301B091D4013091D001A1
:102E900023E0230F2D3758F50196A11DB11D209376
:102EA000D0018093D1019093D201A093D301B0932C
:102EB000D4018091D5019091D601A091D701B09114
:102EC000D8010196A11DB11D8093D5019093D60123
:102ED000A093D701B093D801BF91AF919F918F91EB
:102EE0003F912F910F900FBE0F901F90189526E8DD
:102EF000230F0296A11DB11DD2CF789484B58260B4
:102F000084BD84B5816084BD85B5826085BD85B58D
:102F1000816085BDEEE6F0E0808181608083E1E83C
:102F2000F0E0108280818260808380818160808374
:102F3000E0E8F0E0808181608083E1EBF0E0808177
:102F400084608083E0EBF0E0808181608083EAE749
:102F5000F0E08081846080838081826080838081D2
:102F6000816080838081806880831092C100089591
:102F70008E3008F08E502091980190E4299F9001A6
:102F800011248770822B80937C0080917A0080646A
:102F900080937A0080917A0086FDFCCF8091780042
:102FA0009091790008951F93CF93DF93182FEB0131
:102FB00061E07DD0209731F460E0812FDF91CF91E7
:102FC0001F91B1C0CF3FD10511F461E0F6CFE12FE1
:102FD000F0E0E859FF4FE491E33031F140F4E130A3
:102FE000B1F0E230E1F0C038D1057CF7E5CFE73051
:102FF00029F1E83059F1E430B1F780918000806226
:1030000080938000D0938B00C0938A0004C084B565
:10301000806884BDC7BDDF91CF911F91089584B5AD
:10302000806284BDC8BDF7CF8091800080688093A6
:103030008000D0938900C0938800EDCF8091B000CC
:1030400080688093B000C093B300E5CF8091B0005A
:1030500080628093B000C093B400DDCF833081F0F4
:1030600028F4813099F08230A9F008958730A9F0D2
:103070008830C9F08430B1F4809180008F7D03C026
:10308000809180008F7780938000089584B58F773A
:1030900084BD089584B58F7DFBCF8091B0008F777C
:1030A0008093B00008958091B0008F7DF9CFCF93C9
:1030B000DF9390E0FC01E458FF4F249180579F4F2D
:1030C000FC0184918823C9F090E0880F991FFC01CE
:1030D000E854FF4FA591B491FC01E255FF4FC59113
:1030E000D49161110DC09FB7F8948C9120958223E3
:1030F0008C938881282328839FBFDF91CF910895E7
:10310000623051F49FB7F8943C91822F80958323CD
:103110008C93E8812E2BEFCF8FB7F894EC912E2B68
:103120002C938FBFEACF1F93CF93DF93282F30E0EC
:10313000F901E859FF4F8491F901E458FF4FD49108
:10314000F901E057FF4FC491CC23A1F0162F811154
:1031500085DFEC2FF0E0EE0FFF1FE255FF4FA5914A
:10316000B4918FB7F894EC91111108C0D095DE237B
:10317000DC938FBFDF91CF911F910895DE2BF8CFA5
:10318000CF93DF93282F30E0F901E859FF4F849166
:10319000F901E458FF4FD491F901E057FF4FC49172
:1031A000CC2399F081115ADFEC2FF0E0EE0FFF1FD6
:1031B000EC55FF4FA591B491EC91ED2381E090E0A7
:1031C00009F480E0DF91CF91089580E090E0FACF9C
:1031D000FC01918D228D892F90E0805C9F4F821B96
:1031E00091098F7399270895FC01918D828D98170D
:1031F00031F0828DE80FF11D858D90E008958FEFFD
:103200009FEF0895FC01918D828D981761F0A28D3A
:10321000AE0FBF2FB11D5D968C91928D9F5F9F73F6
:10322000928F90E008958FEF9FEF0895FC01538DEA
:10323000448D252F30E0842F90E0821B930B541790
:1032400010F0CF96089501970895FC01A48DA80F62
:10325000B92FB11DA35ABF4F2C91848D90E00196D8
:103260008F739927848FA689B7892C93A089B189F8
:103270008C91837080648C93938D848D981306C099
:103280000288F389E02D80818F7D80830895CF931C
:10329000DF93EC01888D8823B1F0AA89BB89E88986
:1032A000F9898C9185FD03C0808186FD0CC00FB625
:1032B00007FCF7CF8C9185FFF2CF808185FFEDCFA2
:1032C000CE01C3DFEACFDF91CF910895EF92FF9255
:1032D0000F931F93CF93DF93EC0181E0888F9B8D39
:1032E0008C8D98131AC0E889F989808185FF15C0F3
:1032F0009FB7F894EE89FF896083E889F989808116
:103300008370806480839FBF81E090E0DF91CF91E4
:103310001F910F91FF90EF900895F62E0B8D10E006
:103320000F5F1F4F0F731127E02E8C8D8E110BC076
:103330000FB607FCFACFE889F989808185FFF5CFC0
:10334000CE0183DFF2CFEB8DEC0FFD2FF11DE35AA1
:10335000FF4FF0829FB7F8940B8FEA89FB89808139
:103360008062D0CFCF92DF92EF92FF921F93CF93E4
:10337000DF93EC016A017B01122FE889F98982E071
:103380008083C11481EED806E104F10499F060E075
:1033900079E08DE390E0A7019601F5D02150310945
:1033A000410951095695479537952795211580E193
:1033B000380790F0E889F989108260E874E88EE1B6
:1033C00090E0A7019601DFD0215031094109510950
:1033D0005695479537952795EC85FD853083EE8585
:1033E000FF852083188EEC89FD891083EA89FB898B
:1033F000808180618083EA89FB8980818860808305
:10340000EA89FB89808180688083EA89FB898081E1
:103410008F7D8083DF91CF911F91FF90EF90DF90A0
:10342000CF9008951F920F920FB60F9211242F93F1
:103430008F939F93EF93FF93E091E901F091EA015D
:103440008081E091EF01F091F00182FD1BC090813D
:103450008091F2018F5F8F732091F301821741F009
:10346000E091F201F0E0E752FE4F958F8093F20178
:10347000FF91EF919F918F912F910F900FBE0F9021
:103480001F9018958081F4CF1F920F920FB60F9264
:1034900011242F933F934F935F936F937F938F9359
:1034A0009F93AF93BF93EF93FF9389ED91E0CDDEB0
:1034B000FF91EF91BF91AF919F918F917F916F910C
:1034C0005F914F913F912F910F900FBE0F901F90E2
:1034D0001895E9EDF1E01382128288EE93E0A0E006
:1034E000B0E084839583A683B7838FE991E09183CD
:1034F000808385EC90E09587848784EC90E09787C3
:10350000868780EC90E0918B808B81EC90E0938BB0
:10351000828B82EC90E0958B848B86EC90E0978B8D
:10352000868B118E128E138E148E0895AF92BF92D9
:10353000CF92DF92EF92FF920F931F93CF93DF937F
:103540006C017B018B01040F151FEB015E01AE18AE
:10355000BF08C017D10759F06991D601ED91FC91D0
:103560000190F081E02DC6010995892B79F7C501FD
:10357000DF91CF911F910F91FF90EF90DF90CF904F
:10358000BF90AF900895A1E21A2EAA1BBB1BFD01AC
:103590000DC0AA1FBB1FEE1FFF1FA217B307E40732
:1035A000F50720F0A21BB30BE40BF50B661F771F8A
:1035B000881F991F1A9469F760957095809590956A
:1035C0009B01AC01BD01CF010895EE0FFF1F0590D7
:0A35D000F491E02D0994F894FFCF68
:1035DA00000080BF000080BF000080BF000080BFE5
:1035EA00000080BF000080BF000080BF000080BFD5
:1035FA000000000000008040000040400000004041
:10360A000A28A03BCDCC4C3E0A28A03BCDCC4C3E50
:10361A000A28A03BCDCC4C3E0A28A03BCDCC4C3E40
:10362A000A28A03B0000803F0A28A03BCDCC4C3E94
:10363A0000007F430000000000004C4000400000F2
:10364A0020420000A04200007043000070420AD7E6
:10365A00233C000000000000F0410000803F02000F
:10366A00000000000000000001C001000000006628
:0E367A0019961A16194719E8180219F41800C3
:00000001FF
